--| UDP packet to fixed ports
07:29:25.068758 IP ip-172-31-85-150.ec2.internal.37622 > stevens.edu.traceroute: UDP, length 32
	0x0000:  4500 003c 0b28 0000 0111 61c4 ac1f 5596
	0x0010:  9bf6 af19 92f6 829a 0028 4cff 4041 4243
	0x0020:  4445 4647 4849 4a4b 4c4d 4e4f 5051 5253
	0x0030:  5455 5657 5859 5a5b 5c5d 5e5f
07:29:25.068800 IP ip-172-31-85-150.ec2.internal.48471 > stevens.edu.33435: UDP, length 32
	0x0000:  4500 003c 0b29 0000 0111 61c3 ac1f 5596
	0x0010:  9bf6 af19 bd57 829b 0028 4cff 4041 4243
	0x0020:  4445 4647 4849 4a4b 4c4d 4e4f 5051 5253
	0x0030:  5455 5657 5859 5a5b 5c5d 5e5f
07:29:25.068827 IP ip-172-31-85-150.ec2.internal.43346 > stevens.edu.33436: UDP, length 32
	0x0000:  4500 003c 0b2a 0000 0111 61c2 ac1f 5596
	0x0010:  9bf6 af19 a952 829c 0028 4cff 4041 4243
	0x0020:  4445 4647 4849 4a4b 4c4d 4e4f 5051 5253
	0x0030:  5455 5657 5859 5a5b 5c5d 5e5f
07:29:25.068860 IP ip-172-31-85-150.ec2.internal.59459 > stevens.edu.33437: UDP, length 32
	0x0000:  4500 003c 0b2b 0000 0211 60c1 ac1f 5596
	0x0010:  9bf6 af19 e843 829d 0028 4cff 4041 4243
	0x0020:  4445 4647 4849 4a4b 4c4d 4e4f 5051 5253
	0x0030:  5455 5657 5859 5a5b 5c5d 5e5f
07:29:25.068891 IP ip-172-31-85-150.ec2.internal.safetynetp > stevens.edu.33438: UDP, length 32
	0x0000:  4500 003c 0b2c 0000 0211 60c0 ac1f 5596
	0x0010:  9bf6 af19 9c40 829e 0028 4cff 4041 4243
	0x0020:  4445 4647 4849 4a4b 4c4d 4e4f 5051 5253
	0x0030:  5455 5657 5859 5a5b 5c5d 5e5f
07:29:25.068923 IP ip-172-31-85-150.ec2.internal.45730 > stevens.edu.33439: UDP, length 32
	0x0000:  4500 003c 0b2d 0000 0211 60bf ac1f 5596
	0x0010:  9bf6 af19 b2a2 829f 0028 4cff 4041 4243
	0x0020:  4445 4647 4849 4a4b 4c4d 4e4f 5051 5253
	0x0030:  5455 5657 5859 5a5b 5c5d 5e5f
07:29:25.068993 IP ip-172-31-85-150.ec2.internal.53147 > stevens.edu.33440: UDP, length 32
	0x0000:  4500 003c 0b2e 0000 0311 5fbe ac1f 5596
	0x0010:  9bf6 af19 cf9b 82a0 0028 4cff 4041 4243
	0x0020:  4445 4647 4849 4a4b 4c4d 4e4f 5051 5253
	0x0030:  5455 5657 5859 5a5b 5c5d 5e5f
07:29:25.069028 IP ip-172-31-85-150.ec2.internal.36813 > stevens.edu.33441: UDP, length 32
	0x0000:  4500 003c 0b2f 0000 0311 5fbd ac1f 5596
	0x0010:  9bf6 af19 8fcd 82a1 0028 4cff 4041 4243
	0x0020:  4445 4647 4849 4a4b 4c4d 4e4f 5051 5253
	0x0030:  5455 5657 5859 5a5b 5c5d 5e5f
07:29:25.069059 IP ip-172-31-85-150.ec2.internal.34181 > stevens.edu.33442: UDP, length 32
	0x0000:  4500 003c 0b30 0000 0311 5fbc ac1f 5596
	0x0010:  9bf6 af19 8585 82a2 0028 4cff 4041 4243
	0x0020:  4445 4647 4849 4a4b 4c4d 4e4f 5051 5253
	0x0030:  5455 5657 5859 5a5b 5c5d 5e5f
07:29:25.069090 IP ip-172-31-85-150.ec2.internal.53382 > stevens.edu.33443: UDP, length 32
	0x0000:  4500 003c 0b31 0000 0411 5ebb ac1f 5596
	0x0010:  9bf6 af19 d086 82a3 0028 4cff 4041 4243
	0x0020:  4445 4647 4849 4a4b 4c4d 4e4f 5051 5253
	0x0030:  5455 5657 5859 5a5b 5c5d 5e5f
07:29:25.069121 IP ip-172-31-85-150.ec2.internal.39805 > stevens.edu.33444: UDP, length 32
	0x0000:  4500 003c 0b32 0000 0411 5eba ac1f 5596
	0x0010:  9bf6 af19 9b7d 82a4 0028 4cff 4041 4243
	0x0020:  4445 4647 4849 4a4b 4c4d 4e4f 5051 5253
	0x0030:  5455 5657 5859 5a5b 5c5d 5e5f
07:29:25.069151 IP ip-172-31-85-150.ec2.internal.59161 > stevens.edu.33445: UDP, length 32
	0x0000:  4500 003c 0b33 0000 0411 5eb9 ac1f 5596
	0x0010:  9bf6 af19 e719 82a5 0028 4cff 4041 4243
	0x0020:  4445 4647 4849 4a4b 4c4d 4e4f 5051 5253
	0x0030:  5455 5657 5859 5a5b 5c5d 5e5f
07:29:25.069181 IP ip-172-31-85-150.ec2.internal.48225 > stevens.edu.33446: UDP, length 32
	0x0000:  4500 003c 0b34 0000 0511 5db8 ac1f 5596
	0x0010:  9bf6 af19 bc61 82a6 0028 4cff 4041 4243
	0x0020:  4445 4647 4849 4a4b 4c4d 4e4f 5051 5253
	0x0030:  5455 5657 5859 5a5b 5c5d 5e5f
07:29:25.069209 IP ip-172-31-85-150.ec2.internal.36753 > stevens.edu.33447: UDP, length 32
	0x0000:  4500 003c 0b35 0000 0511 5db7 ac1f 5596
	0x0010:  9bf6 af19 8f91 82a7 0028 4cff 4041 4243
	0x0020:  4445 4647 4849 4a4b 4c4d 4e4f 5051 5253
	0x0030:  5455 5657 5859 5a5b 5c5d 5e5f
07:29:25.069241 IP ip-172-31-85-150.ec2.internal.43330 > stevens.edu.33448: UDP, length 32
	0x0000:  4500 003c 0b36 0000 0511 5db6 ac1f 5596
	0x0010:  9bf6 af19 a942 82a8 0028 4cff 4041 4243
	0x0020:  4445 4647 4849 4a4b 4c4d 4e4f 5051 5253
	0x0030:  5455 5657 5859 5a5b 5c5d 5e5f
07:29:25.069272 IP ip-172-31-85-150.ec2.internal.36168 > stevens.edu.33449: UDP, length 32
	0x0000:  4500 003c 0b37 0000 0611 5cb5 ac1f 5596
	0x0010:  9bf6 af19 8d48 82a9 0028 4cff 4041 4243
	0x0020:  4445 4647 4849 4a4b 4c4d 4e4f 5051 5253
	0x0030:  5455 5657 5859 5a5b 5c5d 5e5f

--| Hop to 100.65.12.193
07:29:25.069542 IP 100.65.12.193 > ip-172-31-85-150.ec2.internal: ICMP time exceeded in-transit, length 36
	0x0000:  4500 0038 0000 0000 f901 4f0d 6441 0cc1
	0x0010:  ac1f 5596 0b00 3704 0000 0000 4500 003c
	0x0020:  0b37 0000 0111 61b5 ac1f 5596 9bf6 af19
	0x0030:  8d48 82a9 0028 ade1

--| UDP packet to fixed port
07:29:25.069599 IP ip-172-31-85-150.ec2.internal.43363 > stevens.edu.33450: UDP, length 32
	0x0000:  4500 003c 0b38 0000 0611 5cb4 ac1f 5596
	0x0010:  9bf6 af19 a963 82aa 0028 4cff 4041 4243
	0x0020:  4445 4647 4849 4a4b 4c4d 4e4f 5051 5253
	0x0030:  5455 5657 5859 5a5b 5c5d 5e5f

--| Hop to 100.65.12.129
07:29:25.070026 IP 100.65.12.129 > ip-172-31-85-150.ec2.internal: ICMP time exceeded in-transit, length 36
	0x0000:  4500 0038 0000 0000 f901 4f4d 6441 0c81
	0x0010:  ac1f 5596 0b00 3704 0000 0000 4500 003c
	0x0020:  0b38 0000 0111 61b4 ac1f 5596 9bf6 af19
	0x0030:  a963 82aa 0028 91c5

--| UDP packet to fixed port
07:29:25.070078 IP ip-172-31-85-150.ec2.internal.34177 > stevens.edu.33451: UDP, length 32
	0x0000:  4500 003c 0b39 0000 0611 5cb3 ac1f 5596
	0x0010:  9bf6 af19 8581 82ab 0028 4cff 4041 4243
	0x0020:  4445 4647 4849 4a4b 4c4d 4e4f 5051 5253
	0x0030:  5455 5657 5859 5a5b 5c5d 5e5f

--| Hop to 100.65.15.49
07:29:25.070612 IP 100.65.15.49 > ip-172-31-85-150.ec2.internal: ICMP time exceeded in-transit, length 36
	0x0000:  4500 0038 0000 0000 f801 4d9d 6441 0f31
	0x0010:  ac1f 5596 0b00 3704 0000 0000 4500 003c
	0x0020:  0b39 0000 0111 61b3 ac1f 5596 9bf6 af19
	0x0030:  8581 82ab 0028 b5a6

--| UDP packet to fixed port
07:29:25.070662 IP ip-172-31-85-150.ec2.internal.51171 > stevens.edu.33452: UDP, length 32
	0x0000:  4500 003c 0b3a 0000 0711 5bb2 ac1f 5596
	0x0010:  9bf6 af19 c7e3 82ac 0028 4cff 4041 4243
	0x0020:  4445 4647 4849 4a4b 4c4d 4e4f 5051 5253
	0x0030:  5455 5657 5859 5a5b 5c5d 5e5f

--| Hop to 52.93.28.235
07:29:25.071160 IP 52.93.28.235 > ip-172-31-85-150.ec2.internal: ICMP time exceeded in-transit, length 36
	0x0000:  4500 0038 0000 0000 f801 6fc7 345d 1ceb
	0x0010:  ac1f 5596 0b00 3704 0000 0000 4500 003c
	0x0020:  0b3a 0000 0111 61b2 ac1f 5596 9bf6 af19
	0x0030:  c7e3 82ac 0028 7343

--| UDP packet to fixed port
07:29:25.071211 IP ip-172-31-85-150.ec2.internal.36501 > stevens.edu.33453: UDP, length 32
	0x0000:  4500 003c 0b3b 0000 0711 5bb1 ac1f 5596
	0x0010:  9bf6 af19 8e95 82ad 0028 4cff 4041 4243
	0x0020:  4445 4647 4849 4a4b 4c4d 4e4f 5051 5253
	0x0030:  5455 5657 5859 5a5b 5c5d 5e5f

--| Hop to 52.93.28.241
07:29:25.072302 IP 52.93.28.241 > ip-172-31-85-150.ec2.internal: ICMP time exceeded in-transit, length 36
	0x0000:  4500 0038 0000 0000 f701 70c1 345d 1cf1
	0x0010:  ac1f 5596 0b00 3704 0000 0000 4500 003c
	0x0020:  0b3b 0000 0111 61b1 ac1f 5596 9bf6 af19
	0x0030:  8e95 82ad 0028 ac90

--| UDP packet to fixed port
07:29:25.072355 IP ip-172-31-85-150.ec2.internal.46035 > stevens.edu.33454: UDP, length 32
	0x0000:  4500 003c 0b3c 0000 0711 5bb0 ac1f 5596
	0x0010:  9bf6 af19 b3d3 82ae 0028 4cff 4041 4243
	0x0020:  4445 4647 4849 4a4b 4c4d 4e4f 5051 5253
	0x0030:  5455 5657 5859 5a5b 5c5d 5e5f

--| Hop to 100.65.14.81
07:29:25.072960 IP 100.65.14.81 > ip-172-31-85-150.ec2.internal: ICMP time exceeded in-transit, length 36
	0x0000:  4500 0038 0000 0000 f801 4e7d 6441 0e51
	0x0010:  ac1f 5596 0b00 3704 0000 0000 4500 003c
	0x0020:  0b3c 0000 0111 61b0 ac1f 5596 9bf6 af19
	0x0030:  b3d3 82ae 0028 8751

--| UDP packet to fixed port
07:29:25.073013 IP ip-172-31-85-150.ec2.internal.53818 > stevens.edu.33455: UDP, length 32
	0x0000:  4500 003c 0b3d 0000 0811 5aaf ac1f 5596
	0x0010:  9bf6 af19 d23a 82af 0028 4cff 4041 4243
	0x0020:  4445 4647 4849 4a4b 4c4d 4e4f 5051 5253
	0x0030:  5455 5657 5859 5a5b 5c5d 5e5f

--| Hop to 216.182.229.213
07:29:25.073037 IP 216.182.229.213 > ip-172-31-85-150.ec2.internal: ICMP time exceeded in-transit, length 36
	0x0000:  4500 0038 9919 4000 ff01 2269 d8b6 e5d5
	0x0010:  ac1f 5596 0b00 3704 0000 0000 4500 003c
	0x0020:  0b28 0000 0111 61c4 ac1f 5596 9bf6 af19
	0x0030:  92f6 829a 0028 a842

--| Hop to 52.93.28.225
07:29:25.073428 IP 52.93.28.225 > ip-172-31-85-150.ec2.internal: ICMP time exceeded in-transit, length 36
	0x0000:  4500 0038 0000 0000 f701 70d1 345d 1ce1
	0x0010:  ac1f 5596 0b00 3704 0000 0000 4500 003c
	0x0020:  0b3d 0000 0111 61af ac1f 5596 9bf6 af19
	0x0030:  d23a 82af 0028 68e9

--| Hop to 216.182.238.167
07:29:25.076103 IP 216.182.238.167 > ip-172-31-85-150.ec2.internal: ICMP time exceeded in-transit, length 36
	0x0000:  4500 0038 0fe9 4000 ff01 a2c7 d8b6 eea7
	0x0010:  ac1f 5596 0b00 3704 0000 0000 4500 003c
	0x0020:  0b29 0000 0111 61c3 ac1f 5596 9bf6 af19
	0x0030:  bd57 829b 0028 7de0

--| UDP packet to fixed port
07:29:25.076327 IP ip-172-31-85-150.ec2.internal.40709 > stevens.edu.33456: UDP, length 32
	0x0000:  4500 003c 0b3e 0000 0811 5aae ac1f 5596
	0x0010:  9bf6 af19 9f05 82b0 0028 4cff 4041 4243
	0x0020:  4445 4647 4849 4a4b 4c4d 4e4f 5051 5253
	0x0030:  5455 5657 5859 5a5b 5c5d 5e5f

--| Hop to 100.100.6.110
07:29:25.076966 IP 100.100.6.110 > ip-172-31-85-150.ec2.internal: ICMP time exceeded in-transit, length 36
	0x0000:  4500 0038 0000 0000 f301 5b3d 6464 066e
	0x0010:  ac1f 5596 0b00 3704 0000 0000 4500 003c
	0x0020:  0b3e 0000 0111 61ae ac1f 5596 9bf6 af19
	0x0030:  9f05 82b0 0028 9c1d

--| UDP packet to fixed ports
07:29:25.078855 IP ip-172-31-85-150.ec2.internal.35429 > stevens.edu.33457: UDP, length 32
	0x0000:  4500 003c 0b3f 0000 0811 5aad ac1f 5596
	0x0010:  9bf6 af19 8a65 82b1 0028 4cff 4041 4243
	0x0020:  4445 4647 4849 4a4b 4c4d 4e4f 5051 5253
	0x0030:  5455 5657 5859 5a5b 5c5d 5e5f
07:29:25.078888 IP ip-172-31-85-150.ec2.internal.34167 > stevens.edu.33458: UDP, length 32
	0x0000:  4500 003c 0b40 0000 0911 59ac ac1f 5596
	0x0010:  9bf6 af19 8577 82b2 0028 4cff 4041 4243
	0x0020:  4445 4647 4849 4a4b 4c4d 4e4f 5051 5253
	0x0030:  5455 5657 5859 5a5b 5c5d 5e5f
07:29:25.078965 IP ip-172-31-85-150.ec2.internal.57751 > stevens.edu.33459: UDP, length 32
	0x0000:  4500 003c 0b41 0000 0911 59ab ac1f 5596
	0x0010:  9bf6 af19 e197 82b3 0028 4cff 4041 4243
	0x0020:  4445 4647 4849 4a4b 4c4d 4e4f 5051 5253
	0x0030:  5455 5657 5859 5a5b 5c5d 5e5f

--| Hop to 100.100.6.116
07:29:25.079518 IP 100.100.6.116 > ip-172-31-85-150.ec2.internal: ICMP time exceeded in-transit, length 36
	0x0000:  4500 0038 0000 0000 f201 5c37 6464 0674
	0x0010:  ac1f 5596 0b00 3704 0000 0000 4500 003c
	0x0020:  0b41 0000 0111 61ab ac1f 5596 9bf6 af19
	0x0030:  e197 82b3 0028 5988

--| Hop to 100.100.6.60
07:29:25.079547 IP 100.100.6.60 > ip-172-31-85-150.ec2.internal: ICMP time exceeded in-transit, length 36
	0x0000:  4500 0038 0000 0000 f301 5b6f 6464 063c
	0x0010:  ac1f 5596 0b00 3704 0000 0000 4500 003c
	0x0020:  0b3f 0000 0111 61ad ac1f 5596 9bf6 af19
	0x0030:  8a65 82b1 0028 b0bc

--| UDP packet to fixed ports
07:29:25.079578 IP ip-172-31-85-150.ec2.internal.41035 > stevens.edu.33460: UDP, length 32
	0x0000:  4500 003c 0b42 0000 0911 59aa ac1f 5596
	0x0010:  9bf6 af19 a04b 82b4 0028 4cff 4041 4243
	0x0020:  4445 4647 4849 4a4b 4c4d 4e4f 5051 5253
	0x0030:  5455 5657 5859 5a5b 5c5d 5e5f
07:29:25.079634 IP ip-172-31-85-150.ec2.internal.45420 > stevens.edu.33461: UDP, length 32
	0x0000:  4500 003c 0b43 0000 0a11 58a9 ac1f 5596
	0x0010:  9bf6 af19 b16c 82b5 0028 4cff 4041 4243
	0x0020:  4445 4647 4849 4a4b 4c4d 4e4f 5051 5253
	0x0030:  5455 5657 5859 5a5b 5c5d 5e5f

--| Hop to 100.66.6.221
07:29:25.081901 IP 100.66.6.221 > ip-172-31-85-150.ec2.internal: ICMP time exceeded in-transit, length 36
	0x0000:  4500 0038 a72f 4000 fc01 6ac0 6442 06dd
	0x0010:  ac1f 5596 0b00 3704 0000 0000 4500 003c
	0x0020:  0b32 0000 0111 61ba ac1f 5596 9bf6 af19
	0x0030:  9b7d 82a4 0028 9fb1

--| UDP packet to fixed port
07:29:25.081957 IP ip-172-31-85-150.ec2.internal.50038 > stevens.edu.33462: UDP, length 32
	0x0000:  4500 003c 0b45 0000 0a11 58a7 ac1f 5596
	0x0010:  9bf6 af19 c376 82b6 0028 4cff 4041 4243
	0x0020:  4445 4647 4849 4a4b 4c4d 4e4f 5051 5253
	0x0030:  5455 5657 5859 5a5b 5c5d 5e5f

--| Hop to 100.66.36.204
07:29:25.082132 IP 100.66.36.204 > ip-172-31-85-150.ec2.internal: ICMP time exceeded in-transit, length 36
	0x0000:  4500 0038 2f7f 4000 fd01 c381 6442 24cc
	0x0010:  ac1f 5596 0b00 3704 0000 0000 4500 003c
	0x0020:  0b30 0000 0111 61bc ac1f 5596 9bf6 af19
	0x0030:  8585 82a2 0028 b5ab

--| UDP packet to fixed port
07:29:25.082180 IP ip-172-31-85-150.ec2.internal.46298 > stevens.edu.33463: UDP, length 32
	0x0000:  4500 003c 0b46 0000 0a11 58a6 ac1f 5596
	0x0010:  9bf6 af19 b4da 82b7 0028 4cff 4041 4243
	0x0020:  4445 4647 4849 4a4b 4c4d 4e4f 5051 5253
	0x0030:  5455 5657 5859 5a5b 5c5d 5e5f

--| Hop to 100.66.13.138
07:29:25.082574 IP 100.66.13.138 > ip-172-31-85-150.ec2.internal: ICMP time exceeded in-transit, length 36
	0x0000:  4500 0038 de45 4000 fe01 2afd 6442 0d8a
	0x0010:  ac1f 5596 0b00 3704 0000 0000 4500 003c
	0x0020:  0b2d 0000 0111 61bf ac1f 5596 9bf6 af19
	0x0030:  b2a2 829f 0028 8891

--| UDP packet to fixed port
07:29:25.082623 IP ip-172-31-85-150.ec2.internal.39968 > stevens.edu.33464: UDP, length 32
	0x0000:  4500 003c 0b47 0000 0b11 57a5 ac1f 5596
	0x0010:  9bf6 af19 9c20 82b8 0028 4cff 4041 4243
	0x0020:  4445 4647 4849 4a4b 4c4d 4e4f 5051 5253
	0x0030:  5455 5657 5859 5a5b 5c5d 5e5f

--| Hop to 100.66.5.63
07:29:25.085044 IP 100.66.5.63 > ip-172-31-85-150.ec2.internal: ICMP time exceeded in-transit, length 36
	0x0000:  4500 0038 b878 4000 fb01 5c15 6442 053f
	0x0010:  ac1f 5596 0b00 3704 0000 0000 4500 003c
	0x0020:  0b36 0000 0111 61b6 ac1f 5596 9bf6 af19
	0x0030:  a942 82a8 0028 91e8

--| UDP packet to fixed ports
07:29:25.085168 IP ip-172-31-85-150.ec2.internal.39432 > stevens.edu.33465: UDP, length 32
	0x0000:  4500 003c 0b4a 0000 0b11 57a2 ac1f 5596
	0x0010:  9bf6 af19 9a08 82b9 0028 4cff 4041 4243
	0x0020:  4445 4647 4849 4a4b 4c4d 4e4f 5051 5253
	0x0030:  5455 5657 5859 5a5b 5c5d 5e5f
07:29:25.085200 IP ip-172-31-85-150.ec2.internal.49281 > stevens.edu.33466: UDP, length 32
	0x0000:  4500 003c 0b4b 0000 0b11 57a1 ac1f 5596
	0x0010:  9bf6 af19 c081 82ba 0028 4cff 4041 4243
	0x0020:  4445 4647 4849 4a4b 4c4d 4e4f 5051 5253
	0x0030:  5455 5657 5859 5a5b 5c5d 5e5f

--| Hop to 216.182.226.138
07:29:25.085586 IP 216.182.226.138 > ip-172-31-85-150.ec2.internal: ICMP time exceeded in-transit, length 36
	0x0000:  4500 0038 068d 4000 ff01 b840 d8b6 e28a
	0x0010:  ac1f 5596 0b00 3704 0000 0000 4500 003c
	0x0020:  0b2a 0000 0111 61c2 ac1f 5596 9bf6 af19
	0x0030:  a952 829c 0028 91e4

--| Hop to 100.91.176.208
07:29:25.085651 IP 100.91.176.208 > ip-172-31-85-150.ec2.internal: ICMP time exceeded in-transit, length 148
	0x0000:  4500 00a8 0000 4000 de01 8573 645b b0d0
	0x0010:  ac1f 5596 0b00 41ff 0000 0000 4500 003c
	0x0020:  0b40 0000 0111 61ac ac1f 5596 9bf6 af19
	0x0030:  8577 82b2 0028 b5a9 4041 4243 4445 4647
	0x0040:  4849 4a4b 4c4d 4e4f 5051 5253 5455 5657
	0x0050:  5859 5a5b 5c5d 5e5f 0000 0000 0000 0000
	0x0060:  0000 0000 0000 0000 0000 0000 0000 0000
	0x0070:  0000 0000 0000 0000 0000 0000 0000 0000
	0x0080:  0000 0000 0000 0000 0000 0000 0000 0000
	0x0090:  0000 0000 0000 0000 0000 0000 2000 01b9
	0x00a0:  0008 0101 9c3c 4101

--| UDP packet to fixed port
07:29:25.085699 IP ip-172-31-85-150.ec2.internal.45763 > stevens.edu.33467: UDP, length 32
	0x0000:  4500 003c 0b4c 0000 0c11 56a0 ac1f 5596
	0x0010:  9bf6 af19 b2c3 82bb 0028 4cff 4041 4243
	0x0020:  4445 4647 4849 4a4b 4c4d 4e4f 5051 5253
	0x0030:  5455 5657 5859 5a5b 5c5d 5e5f

--| Hop to 100.91.177.242
07:29:25.086016 IP 100.91.177.242 > ip-172-31-85-150.ec2.internal: ICMP time exceeded in-transit, length 148
	0x0000:  4500 00a8 0000 4000 d701 8b51 645b b1f2
	0x0010:  ac1f 5596 0b00 41ff 0000 0000 4500 003c
	0x0020:  0b42 0000 0111 61aa ac1f 5596 9bf6 af19
	0x0030:  a04b 82b4 0028 9ad3 4041 4243 4445 4647
	0x0040:  4849 4a4b 4c4d 4e4f 5051 5253 5455 5657
	0x0050:  5859 5a5b 5c5d 5e5f 0000 0000 0000 0000
	0x0060:  0000 0000 0000 0000 0000 0000 0000 0000
	0x0070:  0000 0000 0000 0000 0000 0000 0000 0000
	0x0080:  0000 0000 0000 0000 0000 0000 0000 0000
	0x0090:  0000 0000 0000 0000 0000 0000 2000 c1e4
	0x00a0:  0008 0101 4c10 d101

--| UDP packet to fixed port
07:29:25.086066 IP ip-172-31-85-150.ec2.internal.34747 > stevens.edu.33468: UDP, length 32
	0x0000:  4500 003c 0b4d 0000 0c11 569f ac1f 5596
	0x0010:  9bf6 af19 87bb 82bc 0028 4cff 4041 4243
	0x0020:  4445 4647 4849 4a4b 4c4d 4e4f 5051 5253
	0x0030:  5455 5657 5859 5a5b 5c5d 5e5f

--| Hop to 100.91.177.208
07:29:25.086611 IP 100.91.177.208 > ip-172-31-85-150.ec2.internal: ICMP time exceeded in-transit, length 148
	0x0000:  4500 00a8 0000 4000 d801 8a73 645b b1d0
	0x0010:  ac1f 5596 0b00 41ff 0000 0000 4500 003c
	0x0020:  0b43 0000 0111 61a9 ac1f 5596 9bf6 af19
	0x0030:  b16c 82b5 0028 89b1 4041 4243 4445 4647
	0x0040:  4849 4a4b 4c4d 4e4f 5051 5253 5455 5657
	0x0050:  5859 5a5b 5c5d 5e5f 0000 0000 0000 0000
	0x0060:  0000 0000 0000 0000 0000 0000 0000 0000
	0x0070:  0000 0000 0000 0000 0000 0000 0000 0000
	0x0080:  0000 0000 0000 0000 0000 0000 0000 0000
	0x0090:  0000 0000 0000 0000 0000 0000 2000 cc75
	0x00a0:  0008 0101 b17f 6101

--| UDP packet to fixed port
07:29:25.086659 IP ip-172-31-85-150.ec2.internal.39702 > stevens.edu.33469: UDP, length 32
	0x0000:  4500 003c 0b4e 0000 0c11 569e ac1f 5596
	0x0010:  9bf6 af19 9b16 82bd 0028 4cff 4041 4243
	0x0020:  4445 4647 4849 4a4b 4c4d 4e4f 5051 5253
	0x0030:  5455 5657 5859 5a5b 5c5d 5e5f

--| Hop to 100.66.15.242
07:29:25.087596 IP 100.66.15.242 > ip-172-31-85-150.ec2.internal: ICMP time exceeded in-transit, length 36
	0x0000:  4500 0038 6f82 4000 fd01 9858 6442 0ff2
	0x0010:  ac1f 5596 0b00 3704 0000 0000 4500 003c
	0x0020:  0b2f 0000 0111 61bd ac1f 5596 9bf6 af19
	0x0030:  8fcd 82a1 0028 ab64

--| UDP packet to fixed port
07:29:25.087649 IP ip-172-31-85-150.ec2.internal.53926 > stevens.edu.33470: UDP, length 32
	0x0000:  4500 003c 0b4f 0000 0d11 559d ac1f 5596
	0x0010:  9bf6 af19 d2a6 82be 0028 4cff 4041 4243
	0x0020:  4445 4647 4849 4a4b 4c4d 4e4f 5051 5253
	0x0030:  5455 5657 5859 5a5b 5c5d 5e5f

--| Hop to 100.66.7.181
07:29:25.087881 IP 100.66.7.181 > ip-172-31-85-150.ec2.internal: ICMP time exceeded in-transit, length 36
	0x0000:  4500 0038 9bd7 4000 fc01 7540 6442 07b5
	0x0010:  ac1f 5596 0b00 3704 0000 0000 4500 003c
	0x0020:  0b33 0000 0111 61b9 ac1f 5596 9bf6 af19
	0x0030:  e719 82a5 0028 5414

--| UDP packet to fixed port
07:29:25.087930 IP ip-172-31-85-150.ec2.internal.43370 > stevens.edu.33471: UDP, length 32
	0x0000:  4500 003c 0b50 0000 0d11 559c ac1f 5596
	0x0010:  9bf6 af19 a96a 82bf 0028 4cff 4041 4243
	0x0020:  4445 4647 4849 4a4b 4c4d 4e4f 5051 5253
	0x0030:  5455 5657 5859 5a5b 5c5d 5e5f

--| Hop to 100.66.6.245
07:29:25.088434 IP 100.66.6.245 > ip-172-31-85-150.ec2.internal: ICMP time exceeded in-transit, length 36
	0x0000:  4500 0038 a465 4000 fb01 6e72 6442 06f5
	0x0010:  ac1f 5596 0b00 3704 0000 0000 4500 003c
	0x0020:  0b31 0000 0111 61bb ac1f 5596 9bf6 af19
	0x0030:  d086 82a3 0028 6aa9

--| UDP packet to fixed port
07:29:25.088483 IP ip-172-31-85-150.ec2.internal.38897 > stevens.edu.33472: UDP, length 32
	0x0000:  4500 003c 0b51 0000 0d11 559b ac1f 5596
	0x0010:  9bf6 af19 97f1 82c0 0028 4cff 4041 4243
	0x0020:  4445 4647 4849 4a4b 4c4d 4e4f 5051 5253
	0x0030:  5455 5657 5859 5a5b 5c5d 5e5f

--| Hop to 100.91.177.46
07:29:25.088879 IP 100.91.177.46 > ip-172-31-85-150.ec2.internal: ICMP time exceeded in-transit, length 148
	0x0000:  4500 00a8 0000 4000 de01 8515 645b b12e
	0x0010:  ac1f 5596 0b00 41ff 0000 0000 4500 003c
	0x0020:  0b46 0000 0111 61a6 ac1f 5596 9bf6 af19
	0x0030:  b4da 82b7 0028 8641 4041 4243 4445 4647
	0x0040:  4849 4a4b 4c4d 4e4f 5051 5253 5455 5657
	0x0050:  5859 5a5b 5c5d 5e5f 0000 0000 0000 0000
	0x0060:  0000 0000 0000 0000 0000 0000 0000 0000
	0x0070:  0000 0000 0000 0000 0000 0000 0000 0000
	0x0080:  0000 0000 0000 0000 0000 0000 0000 0000
	0x0090:  0000 0000 0000 0000 0000 0000 2000 01e1
	0x00a0:  0008 0101 8c14 5101

--| UDP packet to fixed port
07:29:25.088927 IP ip-172-31-85-150.ec2.internal.46353 > stevens.edu.33473: UDP, length 32
	0x0000:  4500 003c 0b52 0000 0e11 549a ac1f 5596
	0x0010:  9bf6 af19 b511 82c1 0028 4cff 4041 4243
	0x0020:  4445 4647 4849 4a4b 4c4d 4e4f 5051 5253
	0x0030:  5455 5657 5859 5a5b 5c5d 5e5f

--| Hop to 100.91.177.28
07:29:25.088948 IP 100.91.177.28 > ip-172-31-85-150.ec2.internal: ICMP time exceeded in-transit, length 148
	0x0000:  4500 00a8 0000 4000 dd01 8627 645b b11c
	0x0010:  ac1f 5596 0b00 41ff 0000 0000 4500 003c
	0x0020:  0b45 0000 0111 61a7 ac1f 5596 9bf6 af19
	0x0030:  c376 82b6 0028 77a6 4041 4243 4445 4647
	0x0040:  4849 4a4b 4c4d 4e4f 5051 5253 5455 5657
	0x0050:  5859 5a5b 5c5d 5e5f 0000 0000 0000 0000
	0x0060:  0000 0000 0000 0000 0000 0000 0000 0000
	0x0070:  0000 0000 0000 0000 0000 0000 0000 0000
	0x0080:  0000 0000 0000 0000 0000 0000 0000 0000
	0x0090:  0000 0000 0000 0000 0000 0000 2000 e2fa
	0x00a0:  0008 0101 aafa 5101

--| UDP packet to fixed port
07:29:25.089009 IP ip-172-31-85-150.ec2.internal.43574 > stevens.edu.33474: UDP, length 32
	0x0000:  4500 003c 0b53 0000 0e11 5499 ac1f 5596
	0x0010:  9bf6 af19 aa36 82c2 0028 4cff 4041 4243
	0x0020:  4445 4647 4849 4a4b 4c4d 4e4f 5051 5253
	0x0030:  5455 5657 5859 5a5b 5c5d 5e5f

--| Hop to 100.91.164.67
07:29:25.089678 IP 100.91.164.67 > ip-172-31-85-150.ec2.internal: ICMP time exceeded in-transit, length 148
	0x0000:  4500 00a8 0000 4000 df01 9100 645b a443
	0x0010:  ac1f 5596 0b00 41ff 0000 0000 4500 003c
	0x0020:  0b47 0000 0111 61a5 ac1f 5596 9bf6 af19
	0x0030:  9c20 82b8 0028 9efa 4041 4243 4445 4647
	0x0040:  4849 4a4b 4c4d 4e4f 5051 5253 5455 5657
	0x0050:  5859 5a5b 5c5d 5e5f 0000 0000 0000 0000
	0x0060:  0000 0000 0000 0000 0000 0000 0000 0000
	0x0070:  0000 0000 0000 0000 0000 0000 0000 0000
	0x0080:  0000 0000 0000 0000 0000 0000 0000 0000
	0x0090:  0000 0000 0000 0000 0000 0000 2000 5867
	0x00a0:  0008 0101 858e 0101

--| UDP packet to fixed port
07:29:25.089727 IP ip-172-31-85-150.ec2.internal.51188 > stevens.edu.33475: UDP, length 32
	0x0000:  4500 003c 0b54 0000 0e11 5498 ac1f 5596
	0x0010:  9bf6 af19 c7f4 82c3 0028 4cff 4041 4243
	0x0020:  4445 4647 4849 4a4b 4c4d 4e4f 5051 5253
	0x0030:  5455 5657 5859 5a5b 5c5d 5e5f

--| Hop to 100.91.199.134
07:29:25.092266 IP 100.91.199.134 > ip-172-31-85-150.ec2.internal: ICMP time exceeded in-transit, length 148
	0x0000:  4500 00a8 0000 4000 e001 6cbd 645b c786
	0x0010:  ac1f 5596 0b00 41ff 0000 0000 4500 003c
	0x0020:  0b4c 0000 0111 61a0 ac1f 5596 9bf6 af19
	0x0030:  b2c3 82bb 0028 8854 4041 4243 4445 4647
	0x0040:  4849 4a4b 4c4d 4e4f 5051 5253 5455 5657
	0x0050:  5859 5a5b 5c5d 5e5f 0000 0000 0000 0000
	0x0060:  0000 0000 0000 0000 0000 0000 0000 0000
	0x0070:  0000 0000 0000 0000 0000 0000 0000 0000
	0x0080:  0000 0000 0000 0000 0000 0000 0000 0000
	0x0090:  0000 0000 0000 0000 0000 0000 2000 6ddf
	0x00a0:  0008 0101 c015 b101

--| UDP packet to fixed port
07:29:25.092322 IP ip-172-31-85-150.ec2.internal.37301 > stevens.edu.33476: UDP, length 32
	0x0000:  4500 003c 0b55 0000 0f11 5397 ac1f 5596
	0x0010:  9bf6 af19 91b5 82c4 0028 4cff 4041 4243
	0x0020:  4445 4647 4849 4a4b 4c4d 4e4f 5051 5253
	0x0030:  5455 5657 5859 5a5b 5c5d 5e5f

--| Hop to 100.91.159.56
07:29:25.092649 IP 100.91.159.56 > ip-172-31-85-150.ec2.internal: ICMP time exceeded in-transit, length 148
	0x0000:  4500 00a8 0000 4000 de01 970b 645b 9f38
	0x0010:  ac1f 5596 0b00 41ff 0000 0000 4500 003c
	0x0020:  0b4b 0000 0111 61a1 ac1f 5596 9bf6 af19
	0x0030:  c081 82ba 0028 7a97 4041 4243 4445 4647
	0x0040:  4849 4a4b 4c4d 4e4f 5051 5253 5455 5657
	0x0050:  5859 5a5b 5c5d 5e5f 0000 0000 0000 0000
	0x0060:  0000 0000 0000 0000 0000 0000 0000 0000
	0x0070:  0000 0000 0000 0000 0000 0000 0000 0000
	0x0080:  0000 0000 0000 0000 0000 0000 0000 0000
	0x0090:  0000 0000 0000 0000 0000 0000 2000 14ec
	0x00a0:  0008 0101 6909 6101

--| UDP packet to fixed port
07:29:25.092698 IP ip-172-31-85-150.ec2.internal.50191 > stevens.edu.33477: UDP, length 32
	0x0000:  4500 003c 0b56 0000 0f11 5396 ac1f 5596
	0x0010:  9bf6 af19 c40f 82c5 0028 4cff 4041 4243
	0x0020:  4445 4647 4849 4a4b 4c4d 4e4f 5051 5253
	0x0030:  5455 5657 5859 5a5b 5c5d 5e5f

--| Hop to 100.91.160.87
07:29:25.092784 IP 100.91.160.87 > ip-172-31-85-150.ec2.internal: ICMP time exceeded in-transit, length 148
	0x0000:  4500 00a8 0000 4000 df01 94ec 645b a057
	0x0010:  ac1f 5596 0b00 41ff 0000 0000 4500 003c
	0x0020:  0b4a 0000 0111 61a2 ac1f 5596 9bf6 af19
	0x0030:  9a08 82b9 0028 a111 4041 4243 4445 4647
	0x0040:  4849 4a4b 4c4d 4e4f 5051 5253 5455 5657
	0x0050:  5859 5a5b 5c5d 5e5f 0000 0000 0000 0000
	0x0060:  0000 0000 0000 0000 0000 0000 0000 0000
	0x0070:  0000 0000 0000 0000 0000 0000 0000 0000
	0x0080:  0000 0000 0000 0000 0000 0000 0000 0000
	0x0090:  0000 0000 0000 0000 0000 0000 2000 6089
	0x00a0:  0008 0101 bd6b c101

--| UDP packet to fixed port
07:29:25.092836 IP ip-172-31-85-150.ec2.internal.53465 > stevens.edu.33478: UDP, length 32
	0x0000:  4500 003c 0b57 0000 0f11 5395 ac1f 5596
	0x0010:  9bf6 af19 d0d9 82c6 0028 4cff 4041 4243
	0x0020:  4445 4647 4849 4a4b 4c4d 4e4f 5051 5253
	0x0030:  5455 5657 5859 5a5b 5c5d 5e5f

--| Hop to 100.91.198.42
07:29:25.092911 IP 100.91.198.42 > ip-172-31-85-150.ec2.internal: ICMP time exceeded in-transit, length 148
	0x0000:  4500 00a8 0000 4000 e101 6d19 645b c62a
	0x0010:  ac1f 5596 0b00 41ff 0000 0000 4500 003c
	0x0020:  0b4d 0000 0111 619f ac1f 5596 9bf6 af19
	0x0030:  87bb 82bc 0028 b35b 4041 4243 4445 4647
	0x0040:  4849 4a4b 4c4d 4e4f 5051 5253 5455 5657
	0x0050:  5859 5a5b 5c5d 5e5f 0000 0000 0000 0000
	0x0060:  0000 0000 0000 0000 0000 0000 0000 0000
	0x0070:  0000 0000 0000 0000 0000 0000 0000 0000
	0x0080:  0000 0000 0000 0000 0000 0000 0000 0000
	0x0090:  0000 0000 0000 0000 0000 0000 2000 8127
	0x00a0:  0008 0101 8ccd d101

--| UDP packet to fixed port
07:29:25.092978 IP ip-172-31-85-150.ec2.internal.37356 > stevens.edu.33479: UDP, length 32
	0x0000:  4500 003c 0b58 0000 1011 5294 ac1f 5596
	0x0010:  9bf6 af19 91ec 82c7 0028 4cff 4041 4243
	0x0020:  4445 4647 4849 4a4b 4c4d 4e4f 5051 5253
	0x0030:  5455 5657 5859 5a5b 5c5d 5e5f

--| Hop to 100.91.221.138
07:29:25.093690 IP 100.91.221.138 > ip-172-31-85-150.ec2.internal: ICMP time exceeded in-transit, length 148
	0x0000:  4500 00a8 0000 4000 db01 5bb9 645b dd8a
	0x0010:  ac1f 5596 0b00 41ff 0000 0000 4500 003c
	0x0020:  0b4e 0000 0111 619e ac1f 5596 9bf6 af19
	0x0030:  9b16 82bd 0028 9fff 4041 4243 4445 4647
	0x0040:  4849 4a4b 4c4d 4e4f 5051 5253 5455 5657
	0x0050:  5859 5a5b 5c5d 5e5f 0000 0000 0000 0000
	0x0060:  0000 0000 0000 0000 0000 0000 0000 0000
	0x0070:  0000 0000 0000 0000 0000 0000 0000 0000
	0x0080:  0000 0000 0000 0000 0000 0000 0000 0000
	0x0090:  0000 0000 0000 0000 0000 0000 2000 b8a3
	0x00a0:  0008 0101 6551 c101

--| UDP packet to fixed port
07:29:25.093739 IP ip-172-31-85-150.ec2.internal.55889 > stevens.edu.33480: UDP, length 32
	0x0000:  4500 003c 0b59 0000 1011 5293 ac1f 5596
	0x0010:  9bf6 af19 da51 82c8 0028 4cff 4041 4243
	0x0020:  4445 4647 4849 4a4b 4c4d 4e4f 5051 5253
	0x0030:  5455 5657 5859 5a5b 5c5d 5e5f

--| Hop to 100.91.198.75
07:29:25.094376 IP 100.91.198.75 > ip-172-31-85-150.ec2.internal: ICMP time exceeded in-transit, length 148
	0x0000:  4500 00a8 0000 4000 e101 6cf8 645b c64b
	0x0010:  ac1f 5596 0b00 41ff 0000 0000 4500 003c
	0x0020:  0b4f 0000 0111 619d ac1f 5596 9bf6 af19
	0x0030:  d2a6 82be 0028 686e 4041 4243 4445 4647
	0x0040:  4849 4a4b 4c4d 4e4f 5051 5253 5455 5657
	0x0050:  5859 5a5b 5c5d 5e5f 0000 0000 0000 0000
	0x0060:  0000 0000 0000 0000 0000 0000 0000 0000
	0x0070:  0000 0000 0000 0000 0000 0000 0000 0000
	0x0080:  0000 0000 0000 0000 0000 0000 0000 0000
	0x0090:  0000 0000 0000 0000 0000 0000 2000 a493
	0x00a0:  0008 0101 6961 d101

--| UDP packet to fixed port
07:29:25.094426 IP ip-172-31-85-150.ec2.internal.34769 > stevens.edu.33481: UDP, length 32
	0x0000:  4500 003c 0b5a 0000 1011 5292 ac1f 5596
	0x0010:  9bf6 af19 87d1 82c9 0028 4cff 4041 4243
	0x0020:  4445 4647 4849 4a4b 4c4d 4e4f 5051 5253
	0x0030:  5455 5657 5859 5a5b 5c5d 5e5f

--| Hop to 100.91.199.36
07:29:25.094944 IP 100.91.199.36 > ip-172-31-85-150.ec2.internal: ICMP time exceeded in-transit, length 148
	0x0000:  4500 00a8 0000 4000 df01 6e1f 645b c724
	0x0010:  ac1f 5596 0b00 41ff 0000 0000 4500 003c
	0x0020:  0b50 0000 0111 619c ac1f 5596 9bf6 af19
	0x0030:  a96a 82bf 0028 91a9 4041 4243 4445 4647
	0x0040:  4849 4a4b 4c4d 4e4f 5051 5253 5455 5657
	0x0050:  5859 5a5b 5c5d 5e5f 0000 0000 0000 0000
	0x0060:  0000 0000 0000 0000 0000 0000 0000 0000
	0x0070:  0000 0000 0000 0000 0000 0000 0000 0000
	0x0080:  0000 0000 0000 0000 0000 0000 0000 0000
	0x0090:  0000 0000 0000 0000 0000 0000 2000 0924
	0x00a0:  0008 0101 84d1 5101

--| Hop to 100.91.198.55
07:29:25.095002 IP 100.91.198.55 > ip-172-31-85-150.ec2.internal: ICMP time exceeded in-transit, length 148
	0x0000:  4500 00a8 0000 4000 e201 6c0c 645b c637
	0x0010:  ac1f 5596 0b00 41ff 0000 0000 4500 003c
	0x0020:  0b51 0000 0111 619b ac1f 5596 9bf6 af19
	0x0030:  97f1 82c0 0028 a321 4041 4243 4445 4647
	0x0040:  4849 4a4b 4c4d 4e4f 5051 5253 5455 5657
	0x0050:  5859 5a5b 5c5d 5e5f 0000 0000 0000 0000
	0x0060:  0000 0000 0000 0000 0000 0000 0000 0000
	0x0070:  0000 0000 0000 0000 0000 0000 0000 0000
	0x0080:  0000 0000 0000 0000 0000 0000 0000 0000
	0x0090:  0000 0000 0000 0000 0000 0000 2000 cfc7
	0x00a0:  0008 0101 be2d 5101

--| UDP packet to fixed port
07:29:25.095013 IP ip-172-31-85-150.ec2.internal.40433 > stevens.edu.33482: UDP, length 32
	0x0000:  4500 003c 0b5b 0000 1111 5191 ac1f 5596
	0x0010:  9bf6 af19 9df1 82ca 0028 4cff 4041 4243
	0x0020:  4445 4647 4849 4a4b 4c4d 4e4f 5051 5253
	0x0030:  5455 5657 5859 5a5b 5c5d 5e5f
07:29:25.095068 IP ip-172-31-85-150.ec2.internal.33203 > stevens.edu.33483: UDP, length 32
	0x0000:  4500 003c 0b5c 0000 1111 5190 ac1f 5596
	0x0010:  9bf6 af19 81b3 82cb 0028 4cff 4041 4243
	0x0020:  4445 4647 4849 4a4b 4c4d 4e4f 5051 5253
	0x0030:  5455 5657 5859 5a5b 5c5d 5e5f

--| Hop to 100.91.198.125
07:29:25.095857 IP 100.91.198.125 > ip-172-31-85-150.ec2.internal: ICMP time exceeded in-transit, length 148
	0x0000:  4500 00a8 0000 4000 e101 6cc6 645b c67d
	0x0010:  ac1f 5596 0b00 41ff 0000 0000 4500 003c
	0x0020:  0b53 0000 0111 6199 ac1f 5596 9bf6 af19
	0x0030:  aa36 82c2 0028 90da 4041 4243 4445 4647
	0x0040:  4849 4a4b 4c4d 4e4f 5051 5253 5455 5657
	0x0050:  5859 5a5b 5c5d 5e5f 0000 0000 0000 0000
	0x0060:  0000 0000 0000 0000 0000 0000 0000 0000
	0x0070:  0000 0000 0000 0000 0000 0000 0000 0000
	0x0080:  0000 0000 0000 0000 0000 0000 0000 0000
	0x0090:  0000 0000 0000 0000 0000 0000 2000 7f8b
	0x00a0:  0008 0101 5e6a 0101

--| UDP packet to fixed port
07:29:25.095906 IP ip-172-31-85-150.ec2.internal.44493 > stevens.edu.33484: UDP, length 32
	0x0000:  4500 003c 0b5d 0000 1111 518f ac1f 5596
	0x0010:  9bf6 af19 adcd 82cc 0028 4cff 4041 4243
	0x0020:  4445 4647 4849 4a4b 4c4d 4e4f 5051 5253
	0x0030:  5455 5657 5859 5a5b 5c5d 5e5f

--| Hop to 54.240.229.154
07:29:25.096084 IP 54.240.229.154 > ip-172-31-85-150.ec2.internal: ICMP time exceeded in-transit, length 148
	0x0000:  4500 00a8 0000 4000 e101 7b14 36f0 e59a
	0x0010:  ac1f 5596 0b00 41ff 0000 0000 4500 003c
	0x0020:  0b52 0000 0111 619a ac1f 5596 9bf6 af19
	0x0030:  b511 82c1 0028 8600 4041 4243 4445 4647
	0x0040:  4849 4a4b 4c4d 4e4f 5051 5253 5455 5657
	0x0050:  5859 5a5b 5c5d 5e5f 0000 0000 0000 0000
	0x0060:  0000 0000 0000 0000 0000 0000 0000 0000
	0x0070:  0000 0000 0000 0000 0000 0000 0000 0000
	0x0080:  0000 0000 0000 0000 0000 0000 0000 0000
	0x0090:  0000 0000 0000 0000 0000 0000 2000 0e82
	0x00a0:  0008 0101 3f73 9101

--| UDP packet to fixed port
07:29:25.096134 IP ip-172-31-85-150.ec2.internal.43141 > stevens.edu.33485: UDP, length 32
	0x0000:  4500 003c 0b5e 0000 1211 508e ac1f 5596
	0x0010:  9bf6 af19 a885 82cd 0028 4cff 4041 4243
	0x0020:  4445 4647 4849 4a4b 4c4d 4e4f 5051 5253
	0x0030:  5455 5657 5859 5a5b 5c5d 5e5f

--| Hop to 52.93.133.183
07:29:25.096356 IP 52.93.133.183 > ip-172-31-85-150.ec2.internal: ICMP time exceeded in-transit, length 148
	0x0000:  4500 00a8 0000 4000 e201 dc8a 345d 85b7
	0x0010:  ac1f 5596 0b00 41ff 0000 0000 4500 003c
	0x0020:  0b54 0000 0111 6198 ac1f 5596 9bf6 af19
	0x0030:  c7f4 82c3 0028 731b 4041 4243 4445 4647
	0x0040:  4849 4a4b 4c4d 4e4f 5051 5253 5455 5657
	0x0050:  5859 5a5b 5c5d 5e5f 0000 0000 0000 0000
	0x0060:  0000 0000 0000 0000 0000 0000 0000 0000
	0x0070:  0000 0000 0000 0000 0000 0000 0000 0000
	0x0080:  0000 0000 0000 0000 0000 0000 0000 0000
	0x0090:  0000 0000 0000 0000 0000 0000 2000 f87b
	0x00a0:  0008 0101 b579 3101

--| UDP packet to fixed port
07:29:25.096404 IP ip-172-31-85-150.ec2.internal.51761 > stevens.edu.33486: UDP, length 32
	0x0000:  4500 003c 0b5f 0000 1211 508d ac1f 5596
	0x0010:  9bf6 af19 ca31 82ce 0028 4cff 4041 4243
	0x0020:  4445 4647 4849 4a4b 4c4d 4e4f 5051 5253
	0x0030:  5455 5657 5859 5a5b 5c5d 5e5f

--| Hop to 100.91.189.30
07:29:25.099204 IP 100.91.189.30 > ip-172-31-85-150.ec2.internal: ICMP time exceeded in-transit, length 148
	0x0000:  4500 00a8 0000 4000 e401 7325 645b bd1e
	0x0010:  ac1f 5596 0b00 41ff 0000 0000 4500 003c
	0x0020:  0b55 0000 0111 6197 ac1f 5596 9bf6 af19
	0x0030:  91b5 82c4 0028 a959 4041 4243 4445 4647
	0x0040:  4849 4a4b 4c4d 4e4f 5051 5253 5455 5657
	0x0050:  5859 5a5b 5c5d 5e5f 0000 0000 0000 0000
	0x0060:  0000 0000 0000 0000 0000 0000 0000 0000
	0x0070:  0000 0000 0000 0000 0000 0000 0000 0000
	0x0080:  0000 0000 0000 0000 0000 0000 0000 0000
	0x0090:  0000 0000 0000 0000 0000 0000 2000 1fdb
	0x00a0:  0008 0101 ae1a 1101

--| Hop to 150.222.241.182
07:29:25.099231 IP 150.222.241.182 > ip-172-31-85-150.ec2.internal: ICMP time exceeded in-transit, length 148
	0x0000:  4500 00a8 0000 4000 dd01 130a 96de f1b6
	0x0010:  ac1f 5596 0b00 41ff 0000 0000 4500 003c
	0x0020:  0b57 0000 0111 6195 ac1f 5596 9bf6 af19
	0x0030:  d0d9 82c6 0028 6a33 4041 4243 4445 4647
	0x0040:  4849 4a4b 4c4d 4e4f 5051 5253 5455 5657
	0x0050:  5859 5a5b 5c5d 5e5f 0000 0000 0000 0000
	0x0060:  0000 0000 0000 0000 0000 0000 0000 0000
	0x0070:  0000 0000 0000 0000 0000 0000 0000 0000
	0x0080:  0000 0000 0000 0000 0000 0000 0000 0000
	0x0090:  0000 0000 0000 0000 0000 0000 2000 c5a5
	0x00a0:  0008 0101 784f a101

--| UDP packet to fixed port
07:29:25.099273 IP ip-172-31-85-150.ec2.internal.50521 > stevens.edu.33487: UDP, length 32
	0x0000:  4500 003c 0b62 0000 1211 508a ac1f 5596
	0x0010:  9bf6 af19 c559 82cf 0028 4cff 4041 4243
	0x0020:  4445 4647 4849 4a4b 4c4d 4e4f 5051 5253
	0x0030:  5455 5657 5859 5a5b 5c5d 5e5f

--| Hop to 150.222.240.189
07:29:25.099301 IP 150.222.240.189 > ip-172-31-85-150.ec2.internal: ICMP time exceeded in-transit, length 148
	0x0000:  4500 00a8 0000 4000 e301 0e03 96de f0bd
	0x0010:  ac1f 5596 0b00 41ff 0000 0000 4500 003c
	0x0020:  0b56 0000 0111 6196 ac1f 5596 9bf6 af19
	0x0030:  c40f 82c5 0028 76fe 4041 4243 4445 4647
	0x0040:  4849 4a4b 4c4d 4e4f 5051 5253 5455 5657
	0x0050:  5859 5a5b 5c5d 5e5f 0000 0000 0000 0000
	0x0060:  0000 0000 0000 0000 0000 0000 0000 0000
	0x0070:  0000 0000 0000 0000 0000 0000 0000 0000
	0x0080:  0000 0000 0000 0000 0000 0000 0000 0000
	0x0090:  0000 0000 0000 0000 0000 0000 2000 086c
	0x00a0:  0008 0101 9589 4101

--| UDP packet to fixed ports
07:29:25.099317 IP ip-172-31-85-150.ec2.internal.36391 > stevens.edu.33488: UDP, length 32
	0x0000:  4500 003c 0b63 0000 1311 4f89 ac1f 5596
	0x0010:  9bf6 af19 8e27 82d0 0028 4cff 4041 4243
	0x0020:  4445 4647 4849 4a4b 4c4d 4e4f 5051 5253
	0x0030:  5455 5657 5859 5a5b 5c5d 5e5f
07:29:25.099365 IP ip-172-31-85-150.ec2.internal.60946 > stevens.edu.33489: UDP, length 32
	0x0000:  4500 003c 0b64 0000 1311 4f88 ac1f 5596
	0x0010:  9bf6 af19 ee12 82d1 0028 4cff 4041 4243
	0x0020:  4445 4647 4849 4a4b 4c4d 4e4f 5051 5253
	0x0030:  5455 5657 5859 5a5b 5c5d 5e5f

--| Hop to 100.91.189.106
07:29:25.100316 IP 100.91.189.106 > ip-172-31-85-150.ec2.internal: ICMP time exceeded in-transit, length 148
	0x0000:  4500 00a8 0000 4000 e301 73d9 645b bd6a
	0x0010:  ac1f 5596 0b00 41ff 0000 0000 4500 003c
	0x0020:  0b58 0000 0111 6194 ac1f 5596 9bf6 af19
	0x0030:  91ec 82c7 0028 a91f 4041 4243 4445 4647
	0x0040:  4849 4a4b 4c4d 4e4f 5051 5253 5455 5657
	0x0050:  5859 5a5b 5c5d 5e5f 0000 0000 0000 0000
	0x0060:  0000 0000 0000 0000 0000 0000 0000 0000
	0x0070:  0000 0000 0000 0000 0000 0000 0000 0000
	0x0080:  0000 0000 0000 0000 0000 0000 0000 0000
	0x0090:  0000 0000 0000 0000 0000 0000 2000 71f1
	0x00a0:  0008 0101 5c04 1101

--| UDP packet to fixed port
07:29:25.100366 IP ip-172-31-85-150.ec2.internal.43311 > stevens.edu.33490: UDP, length 32
	0x0000:  4500 003c 0b65 0000 1311 4f87 ac1f 5596
	0x0010:  9bf6 af19 a92f 82d2 0028 4cff 4041 4243
	0x0020:  4445 4647 4849 4a4b 4c4d 4e4f 5051 5253
	0x0030:  5455 5657 5859 5a5b 5c5d 5e5f

--| Hop to 100.91.217.115
07:29:25.101741 IP 100.91.217.115 > ip-172-31-85-150.ec2.internal: ICMP time exceeded in-transit, length 148
	0x0000:  4500 00a8 0000 4000 df01 5bd0 645b d973
	0x0010:  ac1f 5596 0b00 41ff 0000 0000 4500 003c
	0x0020:  0b5a 0000 0111 6192 ac1f 5596 9bf6 af19
	0x0030:  87d1 82c9 0028 b338 4041 4243 4445 4647
	0x0040:  4849 4a4b 4c4d 4e4f 5051 5253 5455 5657
	0x0050:  5859 5a5b 5c5d 5e5f 0000 0000 0000 0000
	0x0060:  0000 0000 0000 0000 0000 0000 0000 0000
	0x0070:  0000 0000 0000 0000 0000 0000 0000 0000
	0x0080:  0000 0000 0000 0000 0000 0000 0000 0000
	0x0090:  0000 0000 0000 0000 0000 0000 2000 740b
	0x00a0:  0008 0101 99e9 d101

--| UDP packet to fixed port
07:29:25.101791 IP ip-172-31-85-150.ec2.internal.57375 > stevens.edu.33491: UDP, length 32
	0x0000:  4500 003c 0b66 0000 1411 4e86 ac1f 5596
	0x0010:  9bf6 af19 e01f 82d3 0028 4cff 4041 4243
	0x0020:  4445 4647 4849 4a4b 4c4d 4e4f 5051 5253
	0x0030:  5455 5657 5859 5a5b 5c5d 5e5f

--| Hop to 100.91.216.136
07:29:25.101949 IP 100.91.216.136 > ip-172-31-85-150.ec2.internal: ICMP time exceeded in-transit, length 148
	0x0000:  4500 00a8 0000 4000 e001 5bbb 645b d888
	0x0010:  ac1f 5596 0b00 41ff 0000 0000 4500 003c
	0x0020:  0b5b 0000 0111 6191 ac1f 5596 9bf6 af19
	0x0030:  9df1 82ca 0028 9d17 4041 4243 4445 4647
	0x0040:  4849 4a4b 4c4d 4e4f 5051 5253 5455 5657
	0x0050:  5859 5a5b 5c5d 5e5f 0000 0000 0000 0000
	0x0060:  0000 0000 0000 0000 0000 0000 0000 0000
	0x0070:  0000 0000 0000 0000 0000 0000 0000 0000
	0x0080:  0000 0000 0000 0000 0000 0000 0000 0000
	0x0090:  0000 0000 0000 0000 0000 0000 2000 41b9
	0x00a0:  0008 0101 7c3c 2101

--| UDP packet to fixed port
07:29:25.102008 IP ip-172-31-85-150.ec2.internal.59406 > stevens.edu.33492: UDP, length 32
	0x0000:  4500 003c 0b67 0000 1411 4e85 ac1f 5596
	0x0010:  9bf6 af19 e80e 82d4 0028 4cff 4041 4243
	0x0020:  4445 4647 4849 4a4b 4c4d 4e4f 5051 5253
	0x0030:  5455 5657 5859 5a5b 5c5d 5e5f

--| Hop to 100.91.189.208
07:29:25.102395 IP 100.91.189.143 > ip-172-31-85-150.ec2.internal: ICMP time exceeded in-transit, length 148
	0x0000:  4500 00a8 0000 4000 e501 71b4 645b bd8f
	0x0010:  ac1f 5596 0b00 41ff 0000 0000 4500 003c
	0x0020:  0b5c 0000 0111 6190 ac1f 5596 9bf6 af19
	0x0030:  81b3 82cb 0028 b954 4041 4243 4445 4647
	0x0040:  4849 4a4b 4c4d 4e4f 5051 5253 5455 5657
	0x0050:  5859 5a5b 5c5d 5e5f 0000 0000 0000 0000
	0x0060:  0000 0000 0000 0000 0000 0000 0000 0000
	0x0070:  0000 0000 0000 0000 0000 0000 0000 0000
	0x0080:  0000 0000 0000 0000 0000 0000 0000 0000
	0x0090:  0000 0000 0000 0000 0000 0000 2000 e37c
	0x00a0:  0008 0101 2a78 d101

--| UDP packet to fixed port
07:29:25.102444 IP ip-172-31-85-150.ec2.internal.38815 > stevens.edu.33493: UDP, length 32
	0x0000:  4500 003c 0b68 0000 1411 4e84 ac1f 5596
	0x0010:  9bf6 af19 979f 82d5 0028 4cff 4041 4243
	0x0020:  4445 4647 4849 4a4b 4c4d 4e4f 5051 5253
	0x0030:  5455 5657 5859 5a5b 5c5d 5e5f

--| Hop to 100.91.191.133
07:29:25.102533 IP 100.91.191.133 > ip-172-31-85-150.ec2.internal: ICMP time exceeded in-transit, length 148
	0x0000:  4500 00a8 0000 4000 e501 6fbe 645b bf85
	0x0010:  ac1f 5596 0b00 41ff 0000 0000 4500 003c
	0x0020:  0b5e 0000 0111 618e ac1f 5596 9bf6 af19
	0x0030:  a885 82cd 0028 9280 4041 4243 4445 4647
	0x0040:  4849 4a4b 4c4d 4e4f 5051 5253 5455 5657
	0x0050:  5859 5a5b 5c5d 5e5f 0000 0000 0000 0000
	0x0060:  0000 0000 0000 0000 0000 0000 0000 0000
	0x0070:  0000 0000 0000 0000 0000 0000 0000 0000
	0x0080:  0000 0000 0000 0000 0000 0000 0000 0000
	0x0090:  0000 0000 0000 0000 0000 0000 2000 93c7
	0x00a0:  0008 0101 6a2d e101

--| Hop to 100.91.188.42
07:29:25.102538 IP 100.91.188.42 > ip-172-31-85-150.ec2.internal: ICMP time exceeded in-transit, length 148
	0x0000:  4500 00a8 0000 4000 e501 7319 645b bc2a
	0x0010:  ac1f 5596 0b00 41ff 0000 0000 4500 003c
	0x0020:  0b5d 0000 0111 618f ac1f 5596 9bf6 af19
	0x0030:  adcd 82cc 0028 8d39 4041 4243 4445 4647
	0x0040:  4849 4a4b 4c4d 4e4f 5051 5253 5455 5657
	0x0050:  5859 5a5b 5c5d 5e5f 0000 0000 0000 0000
	0x0060:  0000 0000 0000 0000 0000 0000 0000 0000
	0x0070:  0000 0000 0000 0000 0000 0000 0000 0000
	0x0080:  0000 0000 0000 0000 0000 0000 0000 0000
	0x0090:  0000 0000 0000 0000 0000 0000 2000 0185
	0x00a0:  0008 0101 2c70 b101

--| UDP packet to fixed ports
07:29:25.102587 IP ip-172-31-85-150.ec2.internal.51573 > stevens.edu.33494: UDP, length 32
	0x0000:  4500 003c 0b69 0000 1511 4d83 ac1f 5596
	0x0010:  9bf6 af19 c975 82d6 0028 4cff 4041 4243
	0x0020:  4445 4647 4849 4a4b 4c4d 4e4f 5051 5253
	0x0030:  5455 5657 5859 5a5b 5c5d 5e5f
07:29:25.102626 IP ip-172-31-85-150.ec2.internal.59196 > stevens.edu.33495: UDP, length 32
	0x0000:  4500 003c 0b6a 0000 1511 4d82 ac1f 5596
	0x0010:  9bf6 af19 e73c 82d7 0028 4cff 4041 4243
	0x0020:  4445 4647 4849 4a4b 4c4d 4e4f 5051 5253
	0x0030:  5455 5657 5859 5a5b 5c5d 5e5f

--| Hop to 100.91.191.141
07:29:25.103781 IP 100.91.191.141 > ip-172-31-85-150.ec2.internal: ICMP time exceeded in-transit, length 148
	0x0000:  4500 00a8 0000 4000 e401 70b6 645b bf8d
	0x0010:  ac1f 5596 0b00 41ff 0000 0000 4500 003c
	0x0020:  0b5f 0000 0111 618d ac1f 5596 9bf6 af19
	0x0030:  ca31 82ce 0028 70d3 4041 4243 4445 4647
	0x0040:  4849 4a4b 4c4d 4e4f 5051 5253 5455 5657
	0x0050:  5859 5a5b 5c5d 5e5f 0000 0000 0000 0000
	0x0060:  0000 0000 0000 0000 0000 0000 0000 0000
	0x0070:  0000 0000 0000 0000 0000 0000 0000 0000
	0x0080:  0000 0000 0000 0000 0000 0000 0000 0000
	0x0090:  0000 0000 0000 0000 0000 0000 2000 ef19
	0x00a0:  0008 0101 9edb 5101

--| UDP packet to fixed port
07:29:25.103832 IP ip-172-31-85-150.ec2.internal.43717 > stevens.edu.33496: UDP, length 32
	0x0000:  4500 003c 0b6b 0000 1511 4d81 ac1f 5596
	0x0010:  9bf6 af19 aac5 82d8 0028 4cff 4041 4243
	0x0020:  4445 4647 4849 4a4b 4c4d 4e4f 5051 5253
	0x0030:  5455 5657 5859 5a5b 5c5d 5e5f

--| Hop to 100.91.189.21
07:29:25.104771 IP 100.91.189.21 > ip-172-31-85-150.ec2.internal: ICMP time exceeded in-transit, length 148
	0x0000:  4500 00a8 0000 4000 e501 722e 645b bd15
	0x0010:  ac1f 5596 0b00 41ff 0000 0000 4500 003c
	0x0020:  0b59 0000 0111 6193 ac1f 5596 9bf6 af19
	0x0030:  da51 82c8 0028 60b9 4041 4243 4445 4647
	0x0040:  4849 4a4b 4c4d 4e4f 5051 5253 5455 5657
	0x0050:  5859 5a5b 5c5d 5e5f 0000 0000 0000 0000
	0x0060:  0000 0000 0000 0000 0000 0000 0000 0000
	0x0070:  0000 0000 0000 0000 0000 0000 0000 0000
	0x0080:  0000 0000 0000 0000 0000 0000 0000 0000
	0x0090:  0000 0000 0000 0000 0000 0000 2000 475d
	0x00a0:  0008 0101 1698 8101

--| UDP packet to fixed port
07:29:25.104822 IP ip-172-31-85-150.ec2.internal.42996 > stevens.edu.33497: UDP, length 32
	0x0000:  4500 003c 0b6c 0000 1611 4c80 ac1f 5596
	0x0010:  9bf6 af19 a7f4 82d9 0028 4cff 4041 4243
	0x0020:  4445 4647 4849 4a4b 4c4d 4e4f 5051 5253
	0x0030:  5455 5657 5859 5a5b 5c5d 5e5f

--| Hop to 100.91.188.84
07:29:25.105430 IP 100.91.188.84 > ip-172-31-85-150.ec2.internal: ICMP time exceeded in-transit, length 148
	0x0000:  4500 00a8 0000 4000 e601 71ef 645b bc54
	0x0010:  ac1f 5596 0b00 41ff 0000 0000 4500 003c
	0x0020:  0b62 0000 0111 618a ac1f 5596 9bf6 af19
	0x0030:  c559 82cf 0028 75aa 4041 4243 4445 4647
	0x0040:  4849 4a4b 4c4d 4e4f 5051 5253 5455 5657
	0x0050:  5859 5a5b 5c5d 5e5f 0000 0000 0000 0000
	0x0060:  0000 0000 0000 0000 0000 0000 0000 0000
	0x0070:  0000 0000 0000 0000 0000 0000 0000 0000
	0x0080:  0000 0000 0000 0000 0000 0000 0000 0000
	0x0090:  0000 0000 0000 0000 0000 0000 2000 cec0
	0x00a0:  0008 0101 7f34 9101

--| UDP packet to fixed port
07:29:25.105481 IP ip-172-31-85-150.ec2.internal.51452 > stevens.edu.33498: UDP, length 32
	0x0000:  4500 003c 0b6d 0000 1611 4c7f ac1f 5596
	0x0010:  9bf6 af19 c8fc 82da 0028 4cff 4041 4243
	0x0020:  4445 4647 4849 4a4b 4c4d 4e4f 5051 5253
	0x0030:  5455 5657 5859 5a5b 5c5d 5e5f

--| Hop to 100.91.216.53
07:29:25.106930 IP 100.91.216.53 > ip-172-31-85-150.ec2.internal: ICMP time exceeded in-transit, length 148
	0x0000:  4500 00a8 0000 4000 e101 5b0e 645b d835
	0x0010:  ac1f 5596 0b00 41ff 0000 0000 4500 003c
	0x0020:  0b63 0000 0111 6189 ac1f 5596 9bf6 af19
	0x0030:  8e27 82d0 0028 acdb 4041 4243 4445 4647
	0x0040:  4849 4a4b 4c4d 4e4f 5051 5253 5455 5657
	0x0050:  5859 5a5b 5c5d 5e5f 0000 0000 0000 0000
	0x0060:  0000 0000 0000 0000 0000 0000 0000 0000
	0x0070:  0000 0000 0000 0000 0000 0000 0000 0000
	0x0080:  0000 0000 0000 0000 0000 0000 0000 0000
	0x0090:  0000 0000 0000 0000 0000 0000 2000 89f1
	0x00a0:  0008 0101 7403 e101

--| UDP packet to fixed port
07:29:25.106994 IP ip-172-31-85-150.ec2.internal.57601 > stevens.edu.33499: UDP, length 32
	0x0000:  4500 003c 0b6e 0000 1611 4c7e ac1f 5596
	0x0010:  9bf6 af19 e101 82db 0028 4cff 4041 4243
	0x0020:  4445 4647 4849 4a4b 4c4d 4e4f 5051 5253
	0x0030:  5455 5657 5859 5a5b 5c5d 5e5f

--| Hop to 100.91.188.127
07:29:25.107075 IP 100.91.188.127 > ip-172-31-85-150.ec2.internal: ICMP time exceeded in-transit, length 148
	0x0000:  4500 00a8 0000 4000 e601 71c4 645b bc7f
	0x0010:  ac1f 5596 0b00 41ff 0000 0000 4500 003c
	0x0020:  0b64 0000 0111 6188 ac1f 5596 9bf6 af19
	0x0030:  ee12 82d1 0028 4cef 4041 4243 4445 4647
	0x0040:  4849 4a4b 4c4d 4e4f 5051 5253 5455 5657
	0x0050:  5859 5a5b 5c5d 5e5f 0000 0000 0000 0000  
	0x0060:  0000 0000 0000 0000 0000 0000 0000 0000
	0x0070:  0000 0000 0000 0000 0000 0000 0000 0000
	0x0080:  0000 0000 0000 0000 0000 0000 0000 0000
	0x0090:  0000 0000 0000 0000 0000 0000 2000 ed33
	0x00a0:  0008 0101 a0c1 5101

--| UDP packet to fixed port
07:29:25.107123 IP ip-172-31-85-150.ec2.internal.39056 > stevens.edu.33500: UDP, length 32
	0x0000:  4500 003c 0b6f 0000 1711 4b7d ac1f 5596
	0x0010:  9bf6 af19 9890 82dc 0028 4cff 4041 4243
	0x0020:  4445 4647 4849 4a4b 4c4d 4e4f 5051 5253
	0x0030:  5455 5657 5859 5a5b 5c5d 5e5f

--| Hop to 100.91.192.1
07:29:25.107530 IP 100.91.192.1 > ip-172-31-85-150.ec2.internal: ICMP time exceeded in-transit, length 36
	0x0000:  4500 0038 a27c 4000 e901 c935 645b c001
	0x0010:  ac1f 5596 0b00 3704 0000 0000 4500 003c
	0x0020:  0b65 0000 0111 6187 ac1f 5596 9bf6 af19
	0x0030:  a92f 82d2 0028 91d1

--| UDP packet to fixed port
07:29:25.107578 IP ip-172-31-85-150.ec2.internal.49445 > stevens.edu.33501: UDP, length 32
	0x0000:  4500 003c 0b70 0000 1711 4b7c ac1f 5596
	0x0010:  9bf6 af19 c125 82dd 0028 4cff 4041 4243
	0x0020:  4445 4647 4849 4a4b 4c4d 4e4f 5051 5253
	0x0030:  5455 5657 5859 5a5b 5c5d 5e5f

--| Hop to 100.91.188.25
07:29:25.108659 IP 100.91.188.25 > ip-172-31-85-150.ec2.internal: ICMP time exceeded in-transit, length 148
	0x0000:  4500 00a8 0000 4000 e601 722a 645b bc19
	0x0010:  ac1f 5596 0b00 41ff 0000 0000 4500 003c
	0x0020:  0b66 0000 0111 6186 ac1f 5596 9bf6 af19
	0x0030:  e01f 82d3 0028 5ae0 4041 4243 4445 4647
	0x0040:  4849 4a4b 4c4d 4e4f 5051 5253 5455 5657
	0x0050:  5859 5a5b 5c5d 5e5f 0000 0000 0000 0000
	0x0060:  0000 0000 0000 0000 0000 0000 0000 0000
	0x0070:  0000 0000 0000 0000 0000 0000 0000 0000
	0x0080:  0000 0000 0000 0000 0000 0000 0000 0000
	0x0090:  0000 0000 0000 0000 0000 0000 2000 ec93
	0x00a0:  0008 0101 a161 5101

--| UDP packet to fixed port
07:29:25.108709 IP ip-172-31-85-150.ec2.internal.37969 > stevens.edu.33502: UDP, length 32
	0x0000:  4500 003c 0b71 0000 1711 4b7b ac1f 5596
	0x0010:  9bf6 af19 9451 82de 0028 4cff 4041 4243
	0x0020:  4445 4647 4849 4a4b 4c4d 4e4f 5051 5253
	0x0030:  5455 5657 5859 5a5b 5c5d 5e5f

--| Hop to 100.91.192.15
07:29:25.108861 IP 100.91.192.15 > ip-172-31-85-150.ec2.internal: ICMP time exceeded in-transit, length 36
	0x0000:  4500 0038 7c27 4000 e901 ef7c 645b c00f
	0x0010:  ac1f 5596 0b00 3704 0000 0000 4500 003c
	0x0020:  0b67 0000 0111 6185 ac1f 5596 9bf6 af19
	0x0030:  e80e 82d4 0028 52f0

--| Hop to 100.91.192.35
07:29:25.108913 IP 100.91.192.35 > ip-172-31-85-150.ec2.internal: ICMP time exceeded in-transit, length 36
	0x0000:  4500 0038 44dc 4000 e901 26b4 645b c023
	0x0010:  ac1f 5596 0b00 3704 0000 0000 4500 003c
	0x0020:  0b6a 0000 0111 6182 ac1f 5596 9bf6 af19
	0x0030:  e73c 82d7 0028 53bf

--| UDP packet to fixed ports
07:29:25.108921 IP ip-172-31-85-150.ec2.internal.49994 > stevens.edu.33503: UDP, length 32
	0x0000:  4500 003c 0b72 0000 1811 4a7a ac1f 5596
	0x0010:  9bf6 af19 c34a 82df 0028 4cff 4041 4243
	0x0020:  4445 4647 4849 4a4b 4c4d 4e4f 5051 5253
	0x0030:  5455 5657 5859 5a5b 5c5d 5e5f
07:29:25.108989 IP ip-172-31-85-150.ec2.internal.34277 > stevens.edu.33504: UDP, length 32
	0x0000:  4500 003c 0b73 0000 1811 4a79 ac1f 5596
	0x0010:  9bf6 af19 85e5 82e0 0028 4cff 4041 4243
	0x0020:  4445 4647 4849 4a4b 4c4d 4e4f 5051 5253
	0x0030:  5455 5657 5859 5a5b 5c5d 5e5f

--| Hop to 100.91.219.7
07:29:25.109694 IP 100.91.219.7 > ip-172-31-85-150.ec2.internal: ICMP time exceeded in-transit, length 148
	0x0000:  4500 00a8 0000 4000 e101 583c 645b db07
	0x0010:  ac1f 5596 0b00 41ff 0000 0000 4500 003c
	0x0020:  0b68 0000 0111 6184 ac1f 5596 9bf6 af19
	0x0030:  979f 82d5 0028 a35e 4041 4243 4445 4647
	0x0040:  4849 4a4b 4c4d 4e4f 5051 5253 5455 5657
	0x0050:  5859 5a5b 5c5d 5e5f 0000 0000 0000 0000
	0x0060:  0000 0000 0000 0000 0000 0000 0000 0000
	0x0070:  0000 0000 0000 0000 0000 0000 0000 0000
	0x0080:  0000 0000 0000 0000 0000 0000 0000 0000
	0x0090:  0000 0000 0000 0000 0000 0000 2000 e95f
	0x00a0:  0008 0101 b495 4101

--| UDP packet to fixed port
07:29:25.109742 IP ip-172-31-85-150.ec2.internal.33013 > stevens.edu.33505: UDP, length 32
	0x0000:  4500 003c 0b74 0000 1811 4a78 ac1f 5596
	0x0010:  9bf6 af19 80f5 82e1 0028 4cff 4041 4243
	0x0020:  4445 4647 4849 4a4b 4c4d 4e4f 5051 5253
	0x0030:  5455 5657 5859 5a5b 5c5d 5e5f

--| Hop to 100.66.6.45
07:29:25.110324 IP 100.66.6.45 > ip-172-31-85-150.ec2.internal: ICMP time exceeded in-transit, length 36
	0x0000:  4500 0038 09f1 4000 fc01 08af 6442 062d
	0x0010:  ac1f 5596 0b00 3704 0000 0000 4500 003c
	0x0020:  0b35 0000 0111 61b7 ac1f 5596 9bf6 af19
	0x0030:  8f91 82a7 0028 ab9a

--| UDP packet to fixed port
07:29:25.110375 IP ip-172-31-85-150.ec2.internal.57937 > stevens.edu.33506: UDP, length 32
	0x0000:  4500 003c 0b75 0000 1911 4977 ac1f 5596
	0x0010:  9bf6 af19 e251 82e2 0028 4cff 4041 4243
	0x0020:  4445 4647 4849 4a4b 4c4d 4e4f 5051 5253
	0x0030:  5455 5657 5859 5a5b 5c5d 5e5f

--| Hop to 52.93.1.78
07:29:25.111288 IP 52.93.1.78 > ip-172-31-85-150.ec2.internal: ICMP time exceeded in-transit, length 36
	0x0000:  4500 0038 f20c 4000 e701 6a57 345d 014e
	0x0010:  ac1f 5596 0b00 3704 0000 0000 4500 003c
	0x0020:  0b6c 0000 0111 6180 ac1f 5596 9bf6 af19
	0x0030:  a7f4 82d9 0028 9305

--| UDP packet to fixed port
07:29:25.111338 IP ip-172-31-85-150.ec2.internal.35074 > stevens.edu.33507: UDP, length 32
	0x0000:  4500 003c 0b76 0000 1911 4976 ac1f 5596
	0x0010:  9bf6 af19 8902 82e3 0028 4cff 4041 4243
	0x0020:  4445 4647 4849 4a4b 4c4d 4e4f 5051 5253
	0x0030:  5455 5657 5859 5a5b 5c5d 5e5f

--| Hop to 100.91.191.109
07:29:25.112302 IP 100.91.191.109 > ip-172-31-85-150.ec2.internal: ICMP time exceeded in-transit, length 148
	0x0000:  4500 00a8 0000 4000 e401 70d6 645b bf6d
	0x0010:  ac1f 5596 0b00 41ff 0000 0000 4500 003c
	0x0020:  0b6d 0000 0111 617f ac1f 5596 9bf6 af19
	0x0030:  c8fc 82da 0028 71fc 4041 4243 4445 4647
	0x0040:  4849 4a4b 4c4d 4e4f 5051 5253 5455 5657
	0x0050:  5859 5a5b 5c5d 5e5f 0000 0000 0000 0000
	0x0060:  0000 0000 0000 0000 0000 0000 0000 0000
	0x0070:  0000 0000 0000 0000 0000 0000 0000 0000
	0x0080:  0000 0000 0000 0000 0000 0000 0000 0000
	0x0090:  0000 0000 0000 0000 0000 0000 2000 6eb2
	0x00a0:  0008 0101 bf42 b101

--| UDP packet to fixed port
07:29:25.112353 IP ip-172-31-85-150.ec2.internal.42134 > stevens.edu.33508: UDP, length 32
	0x0000:  4500 003c 0b77 0000 1911 4975 ac1f 5596
	0x0010:  9bf6 af19 a496 82e4 0028 4cff 4041 4243
	0x0020:  4445 4647 4849 4a4b 4c4d 4e4f 5051 5253
	0x0030:  5455 5657 5859 5a5b 5c5d 5e5f

--| Hop to 100.91.191.137
07:29:25.113396 IP 100.91.191.137 > ip-172-31-85-150.ec2.internal: ICMP time exceeded in-transit, length 148
	0x0000:  4500 00a8 0000 4000 e501 6fba 645b bf89
	0x0010:  ac1f 5596 0b00 41ff 0000 0000 4500 003c
	0x0020:  0b6e 0000 0111 617e ac1f 5596 9bf6 af19
	0x0030:  e101 82db 0028 59f6 4041 4243 4445 4647
	0x0040:  4849 4a4b 4c4d 4e4f 5051 5253 5455 5657
	0x0050:  5859 5a5b 5c5d 5e5f 0000 0000 0000 0000
	0x0060:  0000 0000 0000 0000 0000 0000 0000 0000
	0x0070:  0000 0000 0000 0000 0000 0000 0000 0000
	0x0080:  0000 0000 0000 0000 0000 0000 0000 0000
	0x0090:  0000 0000 0000 0000 0000 0000 2000 ae15
	0x00a0:  0008 0101 4fdf e101

--| Hop to 100.91.191.0
07:29:25.113605 IP 100.91.191.0 > ip-172-31-85-150.ec2.internal: ICMP time exceeded in-transit, length 148
	0x0000:  4500 00a8 0000 4000 e301 7243 645b bf00
	0x0010:  ac1f 5596 0b00 41ff 0000 0000 4500 003c
	0x0020:  0b69 0000 0111 6183 ac1f 5596 9bf6 af19
	0x0030:  c975 82d6 0028 7187 4041 4243 4445 4647
	0x0040:  4849 4a4b 4c4d 4e4f 5051 5253 5455 5657
	0x0050:  5859 5a5b 5c5d 5e5f 0000 0000 0000 0000
	0x0060:  0000 0000 0000 0000 0000 0000 0000 0000
	0x0070:  0000 0000 0000 0000 0000 0000 0000 0000
	0x0080:  0000 0000 0000 0000 0000 0000 0000 0000
	0x0090:  0000 0000 0000 0000 0000 0000 2000 b03f
	0x00a0:  0008 0101 9db5 9101

--|Hop to 52.93.1.90
07:29:25.113737 IP 52.93.1.90 > ip-172-31-85-150.ec2.internal: ICMP time exceeded in-transit, length 36
	0x0000:  4500 0038 1bb1 4000 e701 40a7 345d 015a
	0x0010:  ac1f 5596 0b00 3704 0000 0000 4500 003c
	0x0020:  0b6f 0000 0111 617d ac1f 5596 9bf6 af19
	0x0030:  9890 82dc 0028 a266

--| Hop to 130.156.251.106 
07:29:25.114425 IP 130.156.251.106 > ip-172-31-85-150.ec2.internal: ICMP time exceeded in-transit, length 36
	0x0000:  4500 0038 0000 0000 e501 5608 829c fb6a
	0x0010:  ac1f 5596 0b00 3704 0000 0000 4500 003c
	0x0020:  0b70 0000 0111 617c ac1f 5596 9bf6 af19
	0x0030:  c125 82dd 0028 79d0

--| UDP packet to fixed ports
07:29:25.115305 IP ip-172-31-85-150.ec2.internal.43260 > stevens.edu.33509: UDP, length 32
	0x0000:  4500 003c 0b78 0000 1a11 4874 ac1f 5596
	0x0010:  9bf6 af19 a8fc 82e5 0028 4cff 4041 4243
	0x0020:  4445 4647 4849 4a4b 4c4d 4e4f 5051 5253
	0x0030:  5455 5657 5859 5a5b 5c5d 5e5f
07:29:25.115342 IP ip-172-31-85-150.ec2.internal.38380 > stevens.edu.33510: UDP, length 32
	0x0000:  4500 003c 0b79 0000 1a11 4873 ac1f 5596
	0x0010:  9bf6 af19 95ec 82e6 0028 4cff 4041 4243
	0x0020:  4445 4647 4849 4a4b 4c4d 4e4f 5051 5253
	0x0030:  5455 5657 5859 5a5b 5c5d 5e5f
07:29:25.115368 IP ip-172-31-85-150.ec2.internal.38523 > stevens.edu.33511: UDP, length 32
	0x0000:  4500 003c 0b7a 0000 1a11 4872 ac1f 5596
	0x0010:  9bf6 af19 967b 82e7 0028 4cff 4041 4243
	0x0020:  4445 4647 4849 4a4b 4c4d 4e4f 5051 5253
	0x0030:  5455 5657 5859 5a5b 5c5d 5e5f
07:29:25.115429 IP ip-172-31-85-150.ec2.internal.50395 > stevens.edu.33512: UDP, length 32
	0x0000:  4500 003c 0b7b 0000 1b11 4771 ac1f 5596
	0x0010:  9bf6 af19 c4db 82e8 0028 4cff 4041 4243
	0x0020:  4445 4647 4849 4a4b 4c4d 4e4f 5051 5253
	0x0030:  5455 5657 5859 5a5b 5c5d 5e5f
07:29:25.115460 IP ip-172-31-85-150.ec2.internal.55687 > stevens.edu.33513: UDP, length 32
	0x0000:  4500 003c 0b7c 0000 1b11 4770 ac1f 5596
	0x0010:  9bf6 af19 d987 82e9 0028 4cff 4041 4243
	0x0020:  4445 4647 4849 4a4b 4c4d 4e4f 5051 5253
	0x0030:  5455 5657 5859 5a5b 5c5d 5e5f
07:29:25.115491 IP ip-172-31-85-150.ec2.internal.32934 > stevens.edu.33514: UDP, length 32
	0x0000:  4500 003c 0b7d 0000 1b11 476f ac1f 5596
	0x0010:  9bf6 af19 80a6 82ea 0028 4cff 4041 4243
	0x0020:  4445 4647 4849 4a4b 4c4d 4e4f 5051 5253
	0x0030:  5455 5657 5859 5a5b 5c5d 5e5f


07:29:25.115592 IP 130.156.251.106 > ip-172-31-85-150.ec2.internal: ICMP time exceeded in-transit, length 36
	0x0000:  4500 0038 0000 0000 e501 5608 829c fb6a
	0x0010:  ac1f 5596 0b00 3704 0000 0000 4500 003c
	0x0020:  0b71 0000 0111 617b ac1f 5596 9bf6 af19
	0x0030:  9451 82de 0028 a6a3

--| UDP packet to fixed port
07:29:25.115642 IP ip-172-31-85-150.ec2.internal.37456 > stevens.edu.33515: UDP, length 32
	0x0000:  4500 003c 0b7e 0000 1c11 466e ac1f 5596
	0x0010:  9bf6 af19 9250 82eb 0028 4cff 4041 4243
	0x0020:  4445 4647 4849 4a4b 4c4d 4e4f 5051 5253
	0x0030:  5455 5657 5859 5a5b 5c5d 5e5f

--| Hop to njedege.net
07:29:25.115666 IP www.njedge.net > ip-172-31-85-150.ec2.internal: ICMP time exceeded in-transit, length 76
	0x0000:  4500 0060 30f6 0000 e601 3b84 c620 a04c
	0x0010:  ac1f 5596 0b00 41ee 0011 0000 4500 003c
	0x0020:  0b72 0000 0111 617a ac1f 5596 9bf6 af19
	0x0030:  c34a 82df 0028 77a9 4041 4243 4445 4647
	0x0040:  4849 4a4b 4c4d 4e4f 5051 5253 5455 5657
	0x0050:  5859 5a5b 5c5d 5e5f 0000 0000 0000 0000

--| Hop to 130.156.251.106
07:29:25.115686 IP 130.156.251.106 > ip-172-31-85-150.ec2.internal: ICMP time exceeded in-transit, length 36
	0x0000:  4500 0038 0000 0000 e501 5608 829c fb6a
	0x0010:  ac1f 5596 0b00 3704 0000 0000 4500 003c
	0x0020:  0b73 0000 0111 6179 ac1f 5596 9bf6 af19
	0x0030:  85e5 82e0 0028 b50d

--| UDP packet to fixed ports
07:29:25.115730 IP ip-172-31-85-150.ec2.internal.39087 > stevens.edu.33516: UDP, length 32
	0x0000:  4500 003c 0b7f 0000 1c11 466d ac1f 5596
	0x0010:  9bf6 af19 98af 82ec 0028 4cff 4041 4243
	0x0020:  4445 4647 4849 4a4b 4c4d 4e4f 5051 5253
	0x0030:  5455 5657 5859 5a5b 5c5d 5e5f
07:29:25.115769 IP ip-172-31-85-150.ec2.internal.55041 > stevens.edu.33517: UDP, length 32
	0x0000:  4500 003c 0b80 0000 1c11 466c ac1f 5596
	0x0010:  9bf6 af19 d701 82ed 0028 4cff 4041 4243
	0x0020:  4445 4647 4849 4a4b 4c4d 4e4f 5051 5253
	0x0030:  5455 5657 5859 5a5b 5c5d 5e5f

--| Hop to 52.93.1.21
07:29:25.116642 IP 52.93.1.21 > ip-172-31-85-150.ec2.internal: ICMP time exceeded in-transit, length 148
	0x0000:  4500 00a8 0000 4000 e501 5e2d 345d 0115
	0x0010:  ac1f 5596 0b00 41ff 0000 0000 4500 003c
	0x0020:  0b6b 0000 0111 6181 ac1f 5596 9bf6 af19
	0x0030:  aac5 82d8 0028 9035 4041 4243 4445 4647
	0x0040:  4849 4a4b 4c4d 4e4f 5051 5253 5455 5657
	0x0050:  5859 5a5b 5c5d 5e5f 0000 0000 0000 0000
	0x0060:  0000 0000 0000 0000 0000 0000 0000 0000
	0x0070:  0000 0000 0000 0000 0000 0000 0000 0000
	0x0080:  0000 0000 0000 0000 0000 0000 0000 0000
	0x0090:  0000 0000 0000 0000 0000 0000 2000 8307
	0x00a0:  0008 0101 4aee 1101

--| UDP packet to fixed port
07:29:25.116693 IP ip-172-31-85-150.ec2.internal.35988 > stevens.edu.33518: UDP, length 32
	0x0000:  4500 003c 0b81 0000 1d11 456b ac1f 5596
	0x0010:  9bf6 af19 8c94 82ee 0028 4cff 4041 4243
	0x0020:  4445 4647 4849 4a4b 4c4d 4e4f 5051 5253
	0x0030:  5455 5657 5859 5a5b 5c5d 5e5f

--| Hop to 100.66.5.233
07:29:25.117926 IP 100.66.5.233 > ip-172-31-85-150.ec2.internal: ICMP time exceeded in-transit, length 36
	0x0000:  4500 0038 e846 4000 fb01 2b9d 6442 05e9
	0x0010:  ac1f 5596 0b00 3704 0000 0000 4500 003c
	0x0020:  0b34 0000 0111 61b8 ac1f 5596 9bf6 af19
	0x0030:  bc61 82a6 0028 7ecb

--| UDP packet to fixed port
07:29:25.117992 IP ip-172-31-85-150.ec2.internal.52949 > stevens.edu.33519: UDP, length 32
	0x0000:  4500 003c 0b83 0000 1d11 4569 ac1f 5596
	0x0010:  9bf6 af19 ced5 82ef 0028 4cff 4041 4243
	0x0020:  4445 4647 4849 4a4b 4c4d 4e4f 5051 5253
	0x0030:  5455 5657 5859 5a5b 5c5d 5e5f

--| Hop to 100.66.15.220
07:29:25.118266 IP 100.66.15.220 > ip-172-31-85-150.ec2.internal: ICMP time exceeded in-transit, length 36
	0x0000:  4500 0038 7422 4000 fc01 94ce 6442 0fdc
	0x0010:  ac1f 5596 0b00 3704 0000 0000 4500 003c
	0x0020:  0b2e 0000 0111 61be ac1f 5596 9bf6 af19
	0x0030:  cf9b 82a0 0028 6b97

--| Hop to 130.156.251.106
07:29:25.123593 IP 130.156.251.106 > ip-172-31-85-150.ec2.internal: ICMP time exceeded in-transit, length 36
	0x0000:  4500 0038 0000 0000 e501 5608 829c fb6a
	0x0010:  ac1f 5596 0b00 3704 0000 0000 4500 003c
	0x0020:  0b81 0000 0111 616b ac1f 5596 9bf6 af19
	0x0030:  8c94 82ee 0028 ae50

--| Hop to 52.93.1.55
07:29:25.123883 IP 52.93.1.55 > ip-172-31-85-150.ec2.internal: ICMP time exceeded in-transit, length 148
	0x0000:  4500 00a8 0000 4000 e401 5f0b 345d 0137
	0x0010:  ac1f 5596 0b00 41ff 0000 0000 4500 003c
	0x0020:  0b7b 0000 0111 6171 ac1f 5596 9bf6 af19
	0x0030:  c4db 82e8 0028 760f 4041 4243 4445 4647
	0x0040:  4849 4a4b 4c4d 4e4f 5051 5253 5455 5657
	0x0050:  5859 5a5b 5c5d 5e5f 0000 0000 0000 0000
	0x0060:  0000 0000 0000 0000 0000 0000 0000 0000
	0x0070:  0000 0000 0000 0000 0000 0000 0000 0000
	0x0080:  0000 0000 0000 0000 0000 0000 0000 0000
	0x0090:  0000 0000 0000 0000 0000 0000 2000 646d
	0x00a0:  0008 0101 4988 3101

--| Hop to 52.93.1.27
07:29:25.127330 IP 52.93.1.27 > ip-172-31-85-150.ec2.internal: ICMP time exceeded in-transit, length 148
	0x0000:  4500 00a8 0000 4000 e401 5f27 345d 011b
	0x0010:  ac1f 5596 0b00 41ff 0000 0000 4500 003c
	0x0020:  0b7c 0000 0111 6170 ac1f 5596 9bf6 af19
	0x0030:  d987 82e9 0028 6162 4041 4243 4445 4647
	0x0040:  4849 4a4b 4c4d 4e4f 5051 5253 5455 5657
	0x0050:  5859 5a5b 5c5d 5e5f 0000 0000 0000 0000
	0x0060:  0000 0000 0000 0000 0000 0000 0000 0000
	0x0070:  0000 0000 0000 0000 0000 0000 0000 0000
	0x0080:  0000 0000 0000 0000 0000 0000 0000 0000
	0x0090:  0000 0000 0000 0000 0000 0000 2000 848c
	0x00a0:  0008 0101 4969 1101

--| Hop to 100.65.81.64
07:29:25.137447 IP 100.65.81.64 > ip-172-31-85-150.ec2.internal: ICMP time exceeded in-transit, length 36
	0x0000:  4500 0038 e330 4000 fe01 e25c 6441 5140
	0x0010:  ac1f 5596 0b00 3704 0000 0000 4500 003c
	0x0020:  0b2b 0000 0111 61c1 ac1f 5596 9bf6 af19
	0x0030:  e843 829d 0028 52f2

--| UDP packet to fixed ports
07:29:25.232326 IP ip-172-31-85-150.ec2.internal.48570 > stevens.edu.33520: UDP, length 32
	0x0000:  4500 003c 0bf1 0000 1d11 44fb ac1f 5596
	0x0010:  9bf6 af19 bdba 82f0 0028 4cff 4041 4243
	0x0020:  4445 4647 4849 4a4b 4c4d 4e4f 5051 5253
	0x0030:  5455 5657 5859 5a5b 5c5d 5e5f
07:29:25.238631 IP ip-172-31-85-150.ec2.internal.52937 > stevens.edu.33521: UDP, length 32
	0x0000:  4500 003c 0bf7 0000 1e11 43f5 ac1f 5596
	0x0010:  9bf6 af19 cec9 82f1 0028 4cff 4041 4243
	0x0020:  4445 4647 4849 4a4b 4c4d 4e4f 5051 5253
	0x0030:  5455 5657 5859 5a5b 5c5d 5e5f
07:29:25.238673 IP ip-172-31-85-150.ec2.internal.34481 > stevens.edu.33522: UDP, length 32
	0x0000:  4500 003c 0bf8 0000 1e11 43f4 ac1f 5596
	0x0010:  9bf6 af19 86b1 82f2 0028 4cff 4041 4243
	0x0020:  4445 4647 4849 4a4b 4c4d 4e4f 5051 5253
	0x0030:  5455 5657 5859 5a5b 5c5d 5e5f
07:29:25.238704 IP ip-172-31-85-150.ec2.internal.34957 > stevens.edu.33523: UDP, length 32
	0x0000:  4500 003c 0bf9 0000 1e11 43f3 ac1f 5596
	0x0010:  9bf6 af19 888d 82f3 0028 4cff 4041 4243
	0x0020:  4445 4647 4849 4a4b 4c4d 4e4f 5051 5253
	0x0030:  5455 5657 5859 5a5b 5c5d 5e5f




